{
  "_format": "hh-sol-artifact-1",
  "contractName": "Upload",
  "sourceName": "contracts/Upload.sol",
  "abi": [
    {
      "inputs": [
        {
          "internalType": "address",
          "name": "_user",
          "type": "address"
        },
        {
          "internalType": "string",
          "name": "url",
          "type": "string"
        }
      ],
      "name": "add",
      "outputs": [],
      "stateMutability": "nonpayable",
      "type": "function"
    },
    {
      "inputs": [
        {
          "internalType": "address",
          "name": "user",
          "type": "address"
        }
      ],
      "name": "allow",
      "outputs": [],
      "stateMutability": "nonpayable",
      "type": "function"
    },
    {
      "inputs": [
        {
          "internalType": "address",
          "name": "user",
          "type": "address"
        }
      ],
      "name": "disallow",
      "outputs": [],
      "stateMutability": "nonpayable",
      "type": "function"
    },
    {
      "inputs": [
        {
          "internalType": "address",
          "name": "_user",
          "type": "address"
        }
      ],
      "name": "display",
      "outputs": [
        {
          "internalType": "string[]",
          "name": "",
          "type": "string[]"
        }
      ],
      "stateMutability": "view",
      "type": "function"
    },
    {
      "inputs": [],
      "name": "shareAccess",
      "outputs": [
        {
          "components": [
            {
              "internalType": "address",
              "name": "user",
              "type": "address"
            },
            {
              "internalType": "bool",
              "name": "access",
              "type": "bool"
            }
          ],
          "internalType": "struct Upload.Access[]",
          "name": "",
          "type": "tuple[]"
        }
      ],
      "stateMutability": "view",
      "type": "function"
    }
  ],
  "bytecode": "0x608060405234801561001057600080fd5b50611386806100206000396000f3fe608060405234801561001057600080fd5b50600436106100575760003560e01c806336d6da551461005c578063a9ed9cb814610078578063bc8bef8114610094578063eb39113f146100b2578063ff9913e8146100e2575b600080fd5b61007660048036038101906100719190610ca6565b6100fe565b005b610092600480360381019061008d9190610d02565b610173565b005b61009c61038f565b6040516100a99190610e37565b60405180910390f35b6100cc60048036038101906100c79190610d02565b610498565b6040516100d99190610f9a565b60405180910390f35b6100fc60048036038101906100f79190610d02565b6106ae565b005b6000808373ffffffffffffffffffffffffffffffffffffffff1673ffffffffffffffffffffffffffffffffffffffff1681526020019081526020016000208190806001815401808255809150506001900390600052602060002001600090919091909150908161016e91906111d2565b505050565b6000600160003373ffffffffffffffffffffffffffffffffffffffff1673ffffffffffffffffffffffffffffffffffffffff16815260200190815260200160002060008373ffffffffffffffffffffffffffffffffffffffff1673ffffffffffffffffffffffffffffffffffffffff16815260200190815260200160002060006101000a81548160ff02191690831515021790555060005b600260003373ffffffffffffffffffffffffffffffffffffffff1673ffffffffffffffffffffffffffffffffffffffff1681526020019081526020016000208054905081101561038b578173ffffffffffffffffffffffffffffffffffffffff16600260003373ffffffffffffffffffffffffffffffffffffffff1673ffffffffffffffffffffffffffffffffffffffff16815260200190815260200160002082815481106102bd576102bc6112a4565b5b9060005260206000200160000160009054906101000a900473ffffffffffffffffffffffffffffffffffffffff1673ffffffffffffffffffffffffffffffffffffffff160361037e576000600260003373ffffffffffffffffffffffffffffffffffffffff1673ffffffffffffffffffffffffffffffffffffffff1681526020019081526020016000208281548110610359576103586112a4565b5b9060005260206000200160000160146101000a81548160ff0219169083151502179055505b808060010191505061020b565b5050565b6060600260003373ffffffffffffffffffffffffffffffffffffffff1673ffffffffffffffffffffffffffffffffffffffff168152602001908152602001600020805480602002602001604051908101604052809291908181526020016000905b8282101561048f578382906000526020600020016040518060400160405290816000820160009054906101000a900473ffffffffffffffffffffffffffffffffffffffff1673ffffffffffffffffffffffffffffffffffffffff1673ffffffffffffffffffffffffffffffffffffffff1681526020016000820160149054906101000a900460ff161515151581525050815260200190600101906103f0565b50505050905090565b60603373ffffffffffffffffffffffffffffffffffffffff168273ffffffffffffffffffffffffffffffffffffffff16148061055a5750600160008373ffffffffffffffffffffffffffffffffffffffff1673ffffffffffffffffffffffffffffffffffffffff16815260200190815260200160002060003373ffffffffffffffffffffffffffffffffffffffff1673ffffffffffffffffffffffffffffffffffffffff16815260200190815260200160002060009054906101000a900460ff165b610599576040517f08c379a000000000000000000000000000000000000000000000000000000000815260040161059090611330565b60405180910390fd5b6000808373ffffffffffffffffffffffffffffffffffffffff1673ffffffffffffffffffffffffffffffffffffffff168152602001908152602001600020805480602002602001604051908101604052809291908181526020016000905b828210156106a357838290600052602060002001805461061690610feb565b80601f016020809104026020016040519081016040528092919081815260200182805461064290610feb565b801561068f5780601f106106645761010080835404028352916020019161068f565b820191906000526020600020905b81548152906001019060200180831161067257829003601f168201915b5050505050815260200190600101906105f7565b505050509050919050565b60018060003373ffffffffffffffffffffffffffffffffffffffff1673ffffffffffffffffffffffffffffffffffffffff16815260200190815260200160002060008373ffffffffffffffffffffffffffffffffffffffff1673ffffffffffffffffffffffffffffffffffffffff16815260200190815260200160002060006101000a81548160ff021916908315150217905550600360003373ffffffffffffffffffffffffffffffffffffffff1673ffffffffffffffffffffffffffffffffffffffff16815260200190815260200160002060008273ffffffffffffffffffffffffffffffffffffffff1673ffffffffffffffffffffffffffffffffffffffff16815260200190815260200160002060009054906101000a900460ff161561095a5760005b600260003373ffffffffffffffffffffffffffffffffffffffff1673ffffffffffffffffffffffffffffffffffffffff16815260200190815260200160002080549050811015610954578173ffffffffffffffffffffffffffffffffffffffff16600260003373ffffffffffffffffffffffffffffffffffffffff1673ffffffffffffffffffffffffffffffffffffffff1681526020019081526020016000208281548110610886576108856112a4565b5b9060005260206000200160000160009054906101000a900473ffffffffffffffffffffffffffffffffffffffff1673ffffffffffffffffffffffffffffffffffffffff1603610947576001600260003373ffffffffffffffffffffffffffffffffffffffff1673ffffffffffffffffffffffffffffffffffffffff1681526020019081526020016000208281548110610922576109216112a4565b5b9060005260206000200160000160146101000a81548160ff0219169083151502179055505b80806001019150506107d4565b50610aeb565b600260003373ffffffffffffffffffffffffffffffffffffffff1673ffffffffffffffffffffffffffffffffffffffff16815260200190815260200160002060405180604001604052808373ffffffffffffffffffffffffffffffffffffffff168152602001600115158152509080600181540180825580915050600190039060005260206000200160009091909190915060008201518160000160006101000a81548173ffffffffffffffffffffffffffffffffffffffff021916908373ffffffffffffffffffffffffffffffffffffffff16021790555060208201518160000160146101000a81548160ff02191690831515021790555050506001600360003373ffffffffffffffffffffffffffffffffffffffff1673ffffffffffffffffffffffffffffffffffffffff16815260200190815260200160002060008373ffffffffffffffffffffffffffffffffffffffff1673ffffffffffffffffffffffffffffffffffffffff16815260200190815260200160002060006101000a81548160ff0219169083151502179055505b50565b6000604051905090565b600080fd5b600080fd5b600073ffffffffffffffffffffffffffffffffffffffff82169050919050565b6000610b2d82610b02565b9050919050565b610b3d81610b22565b8114610b4857600080fd5b50565b600081359050610b5a81610b34565b92915050565b600080fd5b600080fd5b6000601f19601f8301169050919050565b7f4e487b7100000000000000000000000000000000000000000000000000000000600052604160045260246000fd5b610bb382610b6a565b810181811067ffffffffffffffff82111715610bd257610bd1610b7b565b5b80604052505050565b6000610be5610aee565b9050610bf18282610baa565b919050565b600067ffffffffffffffff821115610c1157610c10610b7b565b5b610c1a82610b6a565b9050602081019050919050565b82818337600083830152505050565b6000610c49610c4484610bf6565b610bdb565b905082815260208101848484011115610c6557610c64610b65565b5b610c70848285610c27565b509392505050565b600082601f830112610c8d57610c8c610b60565b5b8135610c9d848260208601610c36565b91505092915050565b60008060408385031215610cbd57610cbc610af8565b5b6000610ccb85828601610b4b565b925050602083013567ffffffffffffffff811115610cec57610ceb610afd565b5b610cf885828601610c78565b9150509250929050565b600060208284031215610d1857610d17610af8565b5b6000610d2684828501610b4b565b91505092915050565b600081519050919050565b600082825260208201905092915050565b6000819050602082019050919050565b610d6481610b22565b82525050565b60008115159050919050565b610d7f81610d6a565b82525050565b604082016000820151610d9b6000850182610d5b565b506020820151610dae6020850182610d76565b50505050565b6000610dc08383610d85565b60408301905092915050565b6000602082019050919050565b6000610de482610d2f565b610dee8185610d3a565b9350610df983610d4b565b8060005b83811015610e2a578151610e118882610db4565b9750610e1c83610dcc565b925050600181019050610dfd565b5085935050505092915050565b60006020820190508181036000830152610e518184610dd9565b905092915050565b600081519050919050565b600082825260208201905092915050565b6000819050602082019050919050565b600081519050919050565b600082825260208201905092915050565b60005b83811015610ebf578082015181840152602081019050610ea4565b60008484015250505050565b6000610ed682610e85565b610ee08185610e90565b9350610ef0818560208601610ea1565b610ef981610b6a565b840191505092915050565b6000610f108383610ecb565b905092915050565b6000602082019050919050565b6000610f3082610e59565b610f3a8185610e64565b935083602082028501610f4c85610e75565b8060005b85811015610f885784840389528151610f698582610f04565b9450610f7483610f18565b925060208a01995050600181019050610f50565b50829750879550505050505092915050565b60006020820190508181036000830152610fb48184610f25565b905092915050565b7f4e487b7100000000000000000000000000000000000000000000000000000000600052602260045260246000fd5b6000600282049050600182168061100357607f821691505b60208210810361101657611015610fbc565b5b50919050565b60008190508160005260206000209050919050565b60006020601f8301049050919050565b600082821b905092915050565b60006008830261107e7fffffffffffffffffffffffffffffffffffffffffffffffffffffffffffffffff82611041565b6110888683611041565b95508019841693508086168417925050509392505050565b6000819050919050565b6000819050919050565b60006110cf6110ca6110c5846110a0565b6110aa565b6110a0565b9050919050565b6000819050919050565b6110e9836110b4565b6110fd6110f5826110d6565b84845461104e565b825550505050565b600090565b611112611105565b61111d8184846110e0565b505050565b5b818110156111415761113660008261110a565b600181019050611123565b5050565b601f821115611186576111578161101c565b61116084611031565b8101602085101561116f578190505b61118361117b85611031565b830182611122565b50505b505050565b600082821c905092915050565b60006111a96000198460080261118b565b1980831691505092915050565b60006111c28383611198565b9150826002028217905092915050565b6111db82610e85565b67ffffffffffffffff8111156111f4576111f3610b7b565b5b6111fe8254610feb565b611209828285611145565b600060209050601f83116001811461123c576000841561122a578287015190505b61123485826111b6565b86555061129c565b601f19841661124a8661101c565b60005b828110156112725784890151825560018201915060208501945060208101905061124d565b8683101561128f578489015161128b601f891682611198565b8355505b6001600288020188555050505b505050505050565b7f4e487b7100000000000000000000000000000000000000000000000000000000600052603260045260246000fd5b600082825260208201905092915050565b7f596f7520646f6e27742068617665206163636573730000000000000000000000600082015250565b600061131a6015836112d3565b9150611325826112e4565b602082019050919050565b600060208201905081810360008301526113498161130d565b905091905056fea2646970667358221220f355eec2e46a948a9732453ce5b6311f943fc8ca96ece33bfa8eb74e03176be664736f6c63430008180033",
  "linkReferences": {},
  "deployedLinkReferences": {}
}